:100000000C9456010C949A010C94B5010C949A012D
:100010000C949A010C949A010C949A010C949A01F4
:100020000C949A010C949A010C94D3180C949A0194
:100030000C949A010C949A010C949A010C949A01D4
:100040000C949A010C949A010C949A010C949A01C4
:100050000C949A0129001E001F002000210022009C
:10006000230024002500260027002D002E00350047
:100070002A002B0014001A000800150017001C00AD
:1000800018000C00120013002F00300031004C004B
:10009000390004001600070009000A000B000D00DB
:1000A0000E000F0033003400280000004B00E10078
:1000B0001D001B000600190005001100100036008D
:1000C00037003800E100000052004E00E000000060
:1000D000E30000002C00E20000002C0000000151B1
:1000E00000000000500051004F00A7003A003B0004
:1000F0003C003D003E0001003F0040004100420046
:100100004300440045000100010001000100B3006C
:1001100001000100B200010001000200AE00010078
:1001200001000100010001000000030001000100C6
:1001300001000100010001000100010001000100B7
:1001400000004A000100010001000100010001005F
:100150000100B10001000100010001000000A90040
:100160004D0001000000010000000100E600000059
:1001700001000000010000000000AC00AA00AB007C
:1001800009023B00020100A0FA090400000103017A
:100190000100092101010001224000070581030837
:1001A0000001090401000103000000092101010010
:1001B00001227B00070583030800011201100100E2
:1001C000000008494B4B530100010200010E03538C
:1001D000004B004500720067006F0000000E034BEB
:1001E00000650079007A0069006F000000040309CF
:1001F0000405010902A10185020901A100050919EF
:1002000001290815002501950875018102050109DC
:100210003009311581257F95027508810609381549
:1002200081257F950175088106050C0A3802158124
:10023000257F950175088106C0C005010980A101CF
:10024000850319012AB700150126B700950175101D
:100250008100C0050C0901A101850419012AA00231
:10026000150126A002950175108100C0050109063F
:10027000A101050719E029E7150025019508750179
:1002800081029501750881030507190029FF1500F2
:1002900026FF0095067508810005081901290595B6
:1002A0000575019102950175039103C011241FBECC
:1002B000CFE5D8E0DEBFCDBF04B603FE24C08091F9
:1002C000990290919A02A0919B02B0919C02873072
:1002D000904BA740B04BB9F41092990210929A0239
:1002E00010929B0210929C0214BE84B7877F84BF39
:1002F0000FB6F894A89581B5886181BD11BC0FBE79
:10030000E0E0F8E3099510E0A0E6B0E0EAE3F9E305
:1003100002C005900D92AC3EB107D9F722E0ACEED9
:10032000B0E001C01D92A939B207E1F70E940F1990
:100330000C947D1C0C940000A82FB92F80E090E055
:1003400041E050EA609530E009C02D9182279795F1
:10035000879510F084279527305EC8F36F5FA8F368
:100360000895EADF8D939D930895CF93CFB7CF93F0
:10037000DF93C395839BE9F7839B10C0839B0EC0DB
:10038000839B0CC0839B0AC0839B08C0839B06C0D1
:10039000C0917002C395C09370028EC06F93C091DC
:1003A0006F02DD27C958DD4F2F9365E5839B03C09E
:1003B0002F916F91E1CF0F931F934F9320E040E176
:1003C0005F9300B30C7003FB27F93F9350E03BE0D1
:1003D00039C01C7040642F77012F5F5F1EC04068DA
:1003E00010B31C702F7752501FC0406400B32F779A
:1003F0000C70D1F15F5F00C023C0406210B32F7753
:100400001C7091F15F5F00C025C00C701027515027
:1004100012F45D5F0000115027952C3F10B3C8F611
:100420001C700127015027952C3FC8F6422749939D
:1004300000B30C7010274F73115027952C3FA8F66E
:100440004695469510B31C7079F001270150279509
:100450002C3F98F66B5A60F3315000B3B0F600C0F1
:1004600010E81ABF00271CC03B503195C31BD04079
:1004700010E81ABF0881033C21F10B3411F12091DF
:100480006C021981110F1213EDCF4A81441F0936F6
:1004900079F10D3211F0013E29F74F7009F0042F68
:1004A000009375023F915F914F911F910F912F9192
:1004B0006F91CAB7C7FD5DCFDF91CF91CFBFCF910D
:1004C000189520917502222369F31091730211236C
:1004D00009F049C034300AF448C0309373022093C5
:1004E0006E0210916F023BE0311B30936F023DC0F2
:1004F000009173020130BCF50AE54F7049F4309168
:10050000750034FD33C000937500C9E4D2E032C0F9
:10051000433059F0443091F03091540234FD26C0FC
:1005200000935402C5E5D2E025C030918D0234FD20
:100530001DC000938D02CEE8D2E01CC03091600255
:1005400034FD14C000936002C1E6D2E013C0052759
:1005500010E000C0000002BB1AC0052710E0221FF7
:100560001DC010E021C04AE502C032ED432FC4E1B6
:10057000D0E032E011B31C60939A02B311BB5CE08F
:1005800020E865E320FF052702BB279517951C3F50
:10059000F0F66695B8F7B1F720FF052702BB27955F
:1005A00017951C3FD0F62795179517FF05270000D4
:1005B0001C3F02BBB0F629913A9519F7037F1091C1
:1005C0007402110FC651D04002BB11F010936C029F
:1005D00010E81ABF086011B3137F402F437F54E027
:1005E0005A95F1F702BB11BB42BB5CCFFB018130D6
:1005F0009105D1F0009739F08230910511F1039700
:1006000069F181E008958281882339F086EE0E94A5
:10061000920D84E10E94920DF4CF86EE0E94240E8A
:1006200084E10E94240EEDCF8281882329F086EE9A
:100630000E94920D8CE1EECF86EE0E94240E8CE19A
:10064000F0CF8281882329F086EE0E94920D83E10B
:10065000E1CF86EE0E94240E83E1E3CF82818823DE
:1006600029F086EE0E94920D86E1D4CF86EE0E949C
:10067000240E86E1D6CF81E008950C94F602089509
:100680000C943F031F93CF93DF9300D000D00F92C1
:10069000CDB7DEB749835A836B8330911B018981C3
:1006A0009A8131111DC06623B9F02223A9F00E945E
:1006B000FC15182F682F89819A810E94A8156981DD
:1006C0007A81812F0F900F900F900F900F90DF91F4
:1006D000CF911F910C9404040E94D415182FEFCFD2
:1006E0000E94FC1569817A81EDCFFC01262F4081A3
:1006F00051816281738184810C944203CF93DF9393
:10070000EC0160E00E947503BE01DF91CF910C9473
:1007100040030E9427060C944C060C944F06089543
:100720000E9412110E948F032FEF84E39CE021505E
:1007300080409040E1F700C000000C94F7180F9340
:100740001F93CF93DF938C0161E00E947503EC014E
:10075000B8010E943D038823A9F1B801CE010E948F
:10076000790A882379F1B801CE010E94CB0A882347
:1007700049F1B801CE010E94EE0B882319F1F8016E
:100780008281882361F0CB35FDE5DF0721F170F42C
:10079000C115ECE5DE07A1F0CF3DDC45C9F0C8018D
:1007A000DF91CF911F910F910C943B03CC358DE5D8
:1007B000D807A1F0CD35DD4591F70E94A316EFCF04
:1007C0000E94900380E0DF91CF911F910F910895D7
:1007D0000E941C18F7CF0E94AC16E1CF0E94AF1602
:1007E000DECF08950C94F10381E008950C94F40396
:1007F000CF93C82F0E94F2038C2FCF910C94F60355
:1008000090E080E008950895972F70E02FE0929F88
:10081000600D711D1124FB019BE4899FE00DF11D0A
:100820001124EE0FFF1FEC5AFF4F8591949108950C
:10083000FC01EE0FFF1FE058FE4F85919491089543
:10084000CF93DF930E9404040E943505EC018115CB
:1008500020E5920708F042C0811530E4930708F0C4
:10086000BDC0883E910528F5803E910508F09DC0E9
:10087000883A910588F4853A910508F08FC0813057
:10088000910509F492C0009709F48FC0049708F00D
:100890008CC0D0E0C0E089C08F3B910508F489C0CE
:1008A000805C9109C03CD105A0F30E941804EC01C2
:1008B0007CC08115904250F4C11581E0D80708F042
:1008C00074C0CD3ED10528F3D0656FC0C11590E34B
:1008D000D90708F079C0CE019F70E7CF811525E5D3
:1008E000920758F5811534E5930708F0A6C08115E5
:1008F00042E5940750F4C11581E5D80708F471C0AA
:10090000DC2FCC27C16FD06A50C0982F9695969552
:100910009E0123703327C115D34508F07FC0C1E085
:10092000D0E002C0CC0FDD1F2A95E2F720E2929FB3
:10093000C0011124C82BD92B6FC0C11589E5D80778
:10094000A8F4C11598E5D90708F07CC0C11526E5C3
:10095000D20708F09ECF8C2F0E94CC05C82FD0E084
:10096000DC2FCC27CC27DF71D0621FC0C1153AE540
:10097000D30708F46CC0CE0190568115904208F060
:1009800088CF8D2F8F710E94CC0590E0982F8827FB
:1009900088279F719C012C2BE901E6CFC55AD0E036
:1009A000CC55DF4FC881D0E0D064CE01DF91CF912C
:1009B0000895C85AD0E0CC0FDD1FCA58DF4F099008
:1009C000D881C02DD464F1CFCE019927D3FF03C0C5
:1009D000EC01D86CEACFEC01D06CE7CFDF70D06AC5
:1009E000E4CFCE01E4E096958795EA95E1F7837030
:1009F0002C2F26952695237090E2299F9001112493
:100A0000382B8C2F8370C1E0D0E002C0CC0FDD1FEB
:100A10008A95E2F7C22BD32BDC68C7CFC1E0D0E0C8
:100A200002C0CC0FDD1F2A95E2F730E2939FC00190
:100A30001124C82BD92BDA68B8CFD82FCC27C46F94
:100A4000D06AB3CFDC2FCC27C06FD06AAECF8C2F4B
:100A50008F700E94CC0534E0D695C7953A95E1F7A2
:100A6000CF709C2FEC01D069A0CF82389105B1F1F5
:100A7000B0F48133910509F475C048F489329105C9
:100A800009F469C08A32910509F473C00895853369
:100A9000910509F459C08933910501F10895833E08
:100AA0009105A9F138F4803E9105F9F0823E910557
:100AB00049F10895863E9105A9F1873E9105C9F156
:100AC000843E910519F52091300221FF1FC08091CD
:100AD0002F0284FD14C087EE90E0089520912F022C
:100AE0002370A1F080EE90E0089520912F0220FD68
:100AF00047C03091300230FF09C024FF44C090E06D
:100B000080E004C020912F0222FDF7CF08952091AC
:100B10002F0222FD3BC03091300230FDE3CF24FF95
:100B2000F5CFEDCF20912F0223FFF0CF24FDE7CFAB
:100B3000D2CF20912F0223FD2CC03091300231FF03
:100B4000EECF84EE90E0089520912F0225FFDECFB6
:100B500089E290E0089520912F0225FFD7CF85E309
:100B600090E0089520912F0226FFD0CF8AE290E0F6
:100B7000089520912F0226FFC9CF81E390E00895C8
:100B800089E390E0089583EE90E0089582EE90E08E
:100B9000089586EE90E0089590912F0292FF06C08E
:100BA000282F28712830F9F4877F846093FF06C0CE
:100BB000282F28712831F1F4877E8461209130023A
:100BC00020FF06C0382F38713830D9F4877F816014
:100BD00021FF06C0282F28712831D1F4877E81613A
:100BE00094FD877E0895282F24712430F9F68B7F99
:100BF0008860DCCF282F2471243101F78B7E886137
:100C0000DDCF382F3171313019F78E7F8860E0CF1A
:100C1000282F2171213121F78E7E8861E1CF0C943C
:100C200071170E94C8068FE39CE90197F1F700C095
:100C300000000E94C80680E00E94510680FF04C0A8
:100C40000E940F060C94F71808950C9411060E9448
:100C50007717811102C00E941C180E94821780938E
:100C60009B010E948A179093300280932F020E946A
:100C700025060E948617682F70E090E080E00E94B1
:100C8000AA146091860170918701809188019091EA
:100C900089010C94E41408950C944B0608950C9467
:100CA0004E06E82FF0E0EE0FFF1FE55CFD4F808160
:100CB00091810895089580EA8A95F1F7089500C01A
:100CC00008950C945B06F894E82FE295EF70F0E03D
:100CD00031A9282F2F7081E090E001C0880F2A955C
:100CE000EAF7982F9095932391AB92A9892B82AB29
:100CF000789408950F931F93CF93DF9380E60E941B
:100D0000630684E60E94630683E60E94630682E629
:100D10000E94630681E60E946306C7EAD0E006EB04
:100D200010E089910E9463060C171D07D1F71092FD
:100D300032021092310210923C0210923B02109249
:100D400034021092330210923E0210923D02109231
:100D50003602109235021092400210923F02109219
:100D60003802109237021092420210924102109201
:100D70003A0210923902109244021092430285E026
:100D80000E944807DF91CF911F910F910C94890326
:100D9000AF92BF92DF92EF92FF920F931F93CF9388
:100DA000DF93C6EBD0E001E312E0D12CEE24E39414
:100DB000F12C8991F894E82FE295EF70F0E021A9E9
:100DC0008F70A70102C0440F551F8A95E2F7CA0130
:100DD000922F982B91AB92A98095892382AB78941E
:100DE0000E945F06E7EAF0E030E020E0B12CA12CA1
:100DF0004191A42FA295AF70B0E0D0968C9190E075
:100E00004F7002C0959587954A95E2F780FD3BC0EB
:100E1000C701022E02C0880F991F0A94E2F7A82A80
:100E2000B92A2F5F3F4F2F30310511F7FE0131975F
:100E300080810E9463060E946106F8018081918191
:100E4000A816B90619F1B182A08281E0D82A0E5FF6
:100E50001F4FF0E0CB3BDF0709F0ABCF2D2D45E076
:100E60006BE372E081E392E00E9449070E948D03E8
:100E70008D2DDF91CF911F910F91FF90EF90DF901B
:100E8000BF90AF90089590E080E0C9CF80E0DECFC2
:100E90000895FF920F931F93CF93DF93F82E092F9E
:100EA000162FD72FC42F222349F081E08093F00022
:100EB0000E94AC189093EF008093EE008091F000B8
:100EC0008823A1F08091EE009091EF000E94C41859
:100ED000069760F0EF2DF02FA12FBD2F90E080E05E
:100EE000D0E08C179D0744F01092F000DF91CF9175
:100EF0001F910F91FF900895219131912D933D9372
:100F00000196EFCF8091F70080FF12C060916500DD
:100F100085E0689FB0011124759567957595679573
:100F200060387105A8F561157105A1F1862F089546
:100F300081FF09C06091650085E0689FB0011124C0
:100F400075956795EDCF6091650082FD0AC080912F
:100F5000F6008823D1F090916400609165008917B4
:100F600028F085E0689FB0011124DACF869FB00198
:100F7000112485E0869F9001879F300D1124692FF1
:100F800070E0C9010E940E1CCBCF65E070E0CECFAF
:100F90008FE7089581E008958091F70080FF0CC0ED
:100FA0006091610070E0759567957595679561151D
:100FB000710549F1862F089581FF06C06091610097
:100FC00070E075956795F3CF6091610082FD0BC06D
:100FD0009091F5009923A1F06091600080916100EB
:100FE000961738F0682F70E06038710500F38FE7CE
:100FF0000895899FC001112470E00E940E1CF4CF57
:1010000061E070E0D7CF81E008958D3E31F40E9419
:10101000820781958093FB0008958E3E19F40E940B
:101020008207F8CF8F3E31F40E948207819580932A
:10103000FA000895803F19F40E948207F8CF893F93
:1010400029F40E94CC078093FC0008958A3F21F484
:101050000E94CC078195F7CF8B3F31F40E94CC07DB
:1010600081958093FD0008958C3F19F40E94CC0770
:10107000F8CF9FE0980F983070F4815F990B21E0D2
:1010800030E001C0220F8A95EAF78091F900822BA7
:101090008093F90008958D3F31F48091F7008160CD
:1010A0008093F70008958E3F21F48091F7008260CD
:1010B000F7CF8F3FB9F78091F7008460F1CF40916F
:1010C000FA008D3E59F48091FB0087FF0DC010920D
:1010D000FB0041110BC01092F60008C08E3E81F457
:1010E0008091FB0018169CF3442381F08091FC0052
:1010F0009091FD00892B09F05AC01092F5000895D7
:101100008F3E49F447FFF0CF1092FA008091FB0028
:101110008111ECCFE0CF803F19F41416ACF3E4CF8B
:101120009091FC00893F29F41916F4F61092FC0006
:10113000DBCF8A3F19F497FFD7CFF8CF9091FD000E
:101140008B3F29F497FFD0CF1092FD00CDCF8C3F7D
:1011500019F41916CCF3C8CF9FE0980F983090F48B
:10116000815F990B21E030E0B90102C0660F771F63
:101170008A95E2F7CB0180959091F90089238093BD
:10118000F900B2CF8D3F31F48091F7008E7F8093CC
:10119000F700AACF8E3F21F48091F7008D7FF7CF23
:1011A0008F3F09F0A1CF8091F7008B7FF0CF08959A
:1011B0000E94AC189C019091FA008091FB00982B42
:1011C00021F03093F4002093F3009091FC00809183
:1011D000FD00982B21F03093F2002093F10088EF6E
:1011E00090E00C94340CEF92FF920F931F93CF93E7
:1011F000DF9300D000D000D0CDB7DEB786E0E8EFB7
:10120000F0E0DE01119601900D928A95E1F7E090F1
:10121000FA00F090FB000091FC001091FD0010928C
:10122000FA001092FB001092FC001092FD008E2D2F
:101230008F2991F08091F3009091F4000E94C418DE
:10124000AC019091F600992309F43FC080916600AB
:101250008417150608F447C0802F812B91F08091E8
:10126000F1009091F2000E94C418AC019091F50039
:10127000992309F477C0809162008417150608F459
:101280007FC08091FA009091FB00892B9091FC0027
:10129000892B9091FD00892B11F00E94D80886E0DF
:1012A000FE013196A8EFB0E001900D928A95E1F72A
:1012B00026960FB6F894DEBF0FBECDBFDF91CF915B
:1012C0001F910F91FF90EF900895209167008AE0A1
:1012D000289F900111242417350708F0BDCF9F5F88
:1012E0009093F60002C09F3FD1F7EE2059F00E9484
:1012F00082079FEF1E140CF491E0899F802D11242A
:101300008093FA00FF2059F00E9482079FEF1F147C
:101310000CF491E0899F802D11248093FB00309183
:10132000FA00332309F498CF2091FB00222309F41B
:1013300093CF45EB3403C0011124992359F09093C6
:10134000FA0045EB240390011124332339F0309344
:10135000FB0082CF81E08093FA00F3CF81E080939D
:10136000FB007ACF209163008AE0289F900111242E
:101370002417350708F085CF9F5F9093F50002C0D2
:101380009F3FD1F7002359F00E94CC079FEF101622
:101390000CF491E0899F802D11248093FC0011238F
:1013A00059F00E94CC079FEF11160CF491E0899F31
:1013B000802D11248093FD003091FC00332309F42B
:1013C00060CF2091FD00222309F45BCF45EB34036D
:1013D000C0011124992359F09093FC0045EB24039C
:1013E00090011124332339F03093FD004ACF81E07E
:1013F0008093FC00F3CF81E08093FD0042CF86E034
:10140000E8EFF0E0DF011D928A95E9F71092F6000F
:101410001092F5001092F70008950F931F93CF9349
:10142000DF93C42FD22FFC0182818823C9F040931F
:1014300000010E94AC189093FF008093FE0080E2B0
:101440008C0F883008F050C0C77081E001C0880F51
:10145000CA95EAF7DF91CF911F910F910C94990EE5
:1014600010910001141335C08091FE009091FF008F
:101470000E94C418883C910560F5C0E2CD0F1D178D
:10148000B9F080E2810F883040F4177081E001C02C
:10149000880F1A95EAF70E94A00EC83048F481E040
:1014A0009D2F977001C0880F9A95EAF70E94990EB8
:1014B000802F0E94910EC830B8F4D77081E001C02F
:1014C000880FDA95EAF7DF91CF911F910F910C9475
:1014D000A00E80E28C0F883038F4C77081E001C024
:1014E000880FCA95EAF7EFCFDF91CF911F910F9147
:1014F00008950F939C01CB01243F4CE5340759F12B
:10150000A8F4293DFCE53F0701F12A3D4CE53407ED
:10151000D1F1283D3C4591F406E221EE41EE68ED23
:101520007CE50E940D0A80E00F910895263FFCE5BE
:101530003F07E9F0B0F0273F3C45F9F0FC0182811C
:10154000882339F110920001EFCF07E225EE45EE36
:1015500069ED7CE5E6CF06E221EE40EE64EF7CE546
:10156000E0CF07E225EE44EE65EF7CE5DACF06E258
:1015700021EE42EE66EF7CE5D4CF07E225EE46EEA3
:1015800067EF7CE5CECF08E221E045EE6AED7CE531
:10159000C8CF81E0C9CFCF93DF93EC01FB018281FB
:1015A000882309F419C1C230FCE5DF07C0F1C63158
:1015B0009CE5D90730F09E012B5F3C452930310571
:1015C00070F50E948A179093300280932F02C031E9
:1015D000ECE5DE0709F4CFC008F05BC0C8308CE54D
:1015E000D80709F4B6C088F5C430ECE5DE0709F485
:1015F000A8C0C0F4C2308CE5D80709F49CC0809123
:101600002F028260C330DC4509F498C080912F021C
:10161000909130020E9498170E94121180E0DF9191
:10162000CF91089580912F028061C630ECE5DE07EE
:1016300009F484C080912F028860C730DC4508F42B
:101640007DC080912F02806279C0CC308CE5D807B4
:1016500009F489C070F480912F028C60CA30ECE5E7
:10166000DE0709F46BC008F478C080912F028E7FEA
:1016700065C0CE308CE5D80709F479C080912F027F
:101680008B7FCF30DC4508F459C080912F028F7ECC
:1016900055C0CC3FECE5DE0709F457C030F5C33147
:1016A0008CE5D80709F46FC078F4C131ECE5DE07AA
:1016B00009F465C0C231DC4509F0A8CF0E941211BF
:1016C00080912F028F773AC0C5318CE5D80709F495
:1016D00062C008F476C0809130028160CB3FDC4567
:1016E00009F094CF8093300291CFC115FDE5DF075B
:1016F00009F44DC088F4809130028D7FCE3F9CE587
:10170000D90781F3809130028E7FCF3FDC4550F3C3
:10171000809130028360E6CFC230FDE5DF0709F437
:1017200059C008F444C080E0C330DD4509F06ECFF5
:101730000E941E186BCF80912F02816080932F0230
:1017400065CF80912F028460F9CF80913002826052
:10175000C9CF80912F028064F1CF0E941211809135
:101760002F028068EBCF80912F028D7FE7CF809191
:101770002F02877FE3CF80912F028F7DDFCF809173
:101780002F028F7BDBCF80912F02837FD7CF809179
:1017900030028C7FA7CF80912F0282FB992790F98E
:1017A00021E0922790FB82F990FB83F9C7CF8091CB
:1017B0003002982F909591708E7F892B90FB81F944
:1017C00091CF0E94121190912F02892F97FB87F9D8
:1017D0008058B4CF81E0ACCF81E021CFCF93DF93AD
:1017E000EB0186319C4511F50E94B2169A8199232E
:1017F00099F08A7A91E009F490E0909301018111C7
:1018000009C089E20E946C160E94021780E0DF91F5
:10181000CF91089585E3F6CF80910101811104C035
:1018200089E20E947316F0CF85E3FBCF81E0EFCF12
:1018300090930701809306010895E0910601F091CD
:101840000701309721F00190F081E02D099480E0AC
:101850000895E0910601F0910701309721F0028090
:10186000F381E02D09940895E0910601F0910701BC
:10187000309739F022E0DC012C930480F581E02DD3
:101880000994089520910401309105012817390722
:1018900071F09093050180930401E0910601F091AD
:1018A0000701309721F00680F781E02D0994089513
:1018B00020910201309103012817390771F09093AC
:1018C000030180930201E0910601F0910701309736
:1018D00021F00084F185E02D099408950E94B81844
:1018E00060931701709318018093190190931A0166
:1018F0006093130170931401809315019093160166
:10190000089584B7806884BF84B7806884BF0895D1
:10191000089508950C94880C08950C948C0C0E94E2
:10192000810C8FE697E10E940A190E94890C0C94A1
:101930008A0C81E008950C94990C089508950E94F2
:101940009D0C0C949E0C0E94A5180E947A060C9483
:101950008D0C8F929F92AF92BF92CF92DF92EF92B7
:10196000FF920F931F93CF93DF93CDB7DEB72A97E4
:101970000FB6F894DEBF0FBECDBF0E94C80681111E
:101980000E946E0C59E0852E51E0952E10E000E08B
:10199000A02E802F0E9451066C01F401E190F1907D
:1019A0004F01E816F90609F45CC080919B0181FDA6
:1019B0000E945A06C7018C259D25B12CEE24E39484
:1019C000F12C9C012E213F21232B09F444C00E94BD
:1019D0009B0C8823A9F0BE82AF82CE20DF2081E05D
:1019E000CD2809F480E088870E94AC188160782FA8
:1019F0009A8789874E815F8168858A850E945B0D01
:101A0000000F111FF801E75FFE4F80819181E826EA
:101A1000F926F182E0820E94F3080E941D0C909149
:101A200008018917A9F10E941D0C809308012A96CC
:101A30000FB6F894DEBF0FBECDBFDF91CF911F91DF
:101A40000F91FF90EF90DF90CF90BF90AF909F905D
:101A50008F900C94F803B394EE0CFF1CFFE0BF12C0
:101A6000B0CF0F5F1F4F0530110509F091CF8FEFF9
:101A700089838A831B820E94AC188160782F9D83A2
:101A80008C8349815A816B818D810E945B0DC3CF0C
:101A90002A960FB6F894DEBF0FBECDBFDF91CF916F
:101AA0001F910F91FF90EF90DF90CF90BF90AF907C
:101AB0009F908F900895DF92EF92FF920F931F9364
:101AC000CF93DF93CDB7DEB72B970FB6F894DEBF79
:101AD0000FBECDBF7A878B87F42E052F162FE72EEA
:101AE000D82E61110E94D2161E821D827E2DEC829C
:101AF000DD824F2D502F612F8D2D9E812B960FB69D
:101B0000F894DEBF0FBECDBFDF91CF911F910F9133
:101B1000FF90EF90DF900C948813FC0180819181FD
:101B20000C943E16CF93C82F882309F48BC08238BB
:101B3000C1F40E941D0C81FD85C089E30E946C16D2
:101B40000E9402172FEF81EE94E0215080409040D8
:101B5000E1F700C0000089E30E947316CF910C9456
:101B600002178338A1F40E941D0C80FD6BC083E531
:101B70000E946C160E9402172FEF81EE94E0215014
:101B800080409040E1F700C0000083E5E5CF843855
:101B9000A1F40E941D0C82FD55C087E40E946C16C2
:101BA0000E9402172FEF81EE94E021508040904078
:101BB000E1F700C0000087E4CFCF8CEF8C0F813AB3
:101BC00090F46C2F80916800909169000E94351804
:101BD000882329F08C2F0E9473160E9402178C2FE5
:101BE0000E946C16BBCF80E28C0F883048F4C7701F
:101BF00081E001C0880FCA95EAF70E94B516AECF02
:101C0000EBE5EC0FE33040F4F0E0E751FF4F80816B
:101C100090E0CF910C94420CE8E5EC0FE73150F4E2
:101C2000F0E0EE0FFF1FE554FF4F80819181CF91CF
:101C30000C94580CCD3E30F08C2F0E940508CF91AB
:101C40000C94D808CF910895882309F452C08238A3
:101C500071F40E941D0C81FF4CC089E30E946C1638
:101C60000E94021789E30E9473160C9402178338AE
:101C700059F40E941D0C80FF3CC083E50E946C1645
:101C80000E94021783E5EFCF843859F40E941D0C9F
:101C900082FF2FC087E40E946C160E94021787E41F
:101CA000E2CF9CEF980F913AF0F290E2980F9830C3
:101CB00050F4877091E001C0990F8A95EAF7892F57
:101CC0000E94BB16D2CF9BE5980F933020F490E092
:101CD00080E00C94420C98E5980F973120F490E046
:101CE00080E00C94580C8D3E20F00E945F080C940C
:101CF000D80808951F93CF93DF93182FEB010E940C
:101D0000920D209731F4812FDF91CF911F910C9488
:101D1000240E8FE99FE00197F1F700C000002197A2
:101D2000F0CF70E060E0893311F460E570E00C946E
:101D30007A0E882321F00E94B5160C94021708959C
:101D4000882321F00E94BB160C9402170895BF92BD
:101D5000CF92DF92EF92FF920F931F93CF93DF9377
:101D60006C01D62FC72FFC011281058102950F70DF
:101D70000E948A16E82E8823A1F0E12E112389F013
:101D80008C2F807F803429F080E28D0FE12C883009
:101D900040F082E00E9453170E948A1691E0E82EDC
:101DA000E926BC2EB2949FE0B922EB2DF0E0E15879
:101DB000F34E0C94221C0C2F0F70C07F11F0029573
:101DC000007F1123A9F0002359F080E28D0F8830A5
:101DD00010F0D11109C0802F0E94B5160E94021781
:101DE0008D2F0E94920D14C0802F0E94C516F6CF31
:101DF0008D2F0E94240E002359F080E28D0F883031
:101E000010F0D1112CC0802F0E94BB160E94021727
:101E10002B2D2850330B2430310520F40E941D0C4B
:101E20000E94F803EE2009F49EC10E94861680FDF0
:101E30009AC1F60112820E9480160E940C15C601FA
:101E40000E94D4100E948016DF91CF911F910F91B4
:101E5000FF90EF90DF90CF90BF900C942D15802FC6
:101E60000E94CB16D3CFFC2FFF70FF2EC07FC03255
:101E700019F0F29480EFF822DD2369F0D13049F1B6
:101E8000112391F1002351F1F601858180FFA8CF44
:101E90008F70858323C0112381F0011106C00E9439
:101EA000E5168F290E94990EB3CF0130C1F70E9429
:101EB000E5168F290E94EB16ABCF011106C00E94D8
:101EC000F8168F2D0E94A00EA3CF013009F4A0CFE9
:101ED000F6CF112329F0063008F09ACF8F2DE2CFEC
:101EE000053008F095CFEDCF002359F3D93349F4ED
:101EF000FFEF27EE33E0F15020403040E1F700C023
:101F000000008D2F0E94240E83CF8C2F86958695FE
:101F1000837069F0813009F07BCF8D2F9C2F9370F7
:101F2000111102C090E080E00E94580C71CF8D2FFB
:101F30009C2F9370111102C090E080E00E94420C2F
:101F400067CF8D2F112329F00E9405080E94D80821
:101F50005FCF0E945F08FACF8C2F837009F041C0D9
:101F6000111156CF4D2F429546954770440F440F9F
:101F70000D2F0F7010E030E020E0042E04C0000FA1
:101F8000111F221F331F0A94D2F760E070E0CB01CB
:101F9000D4FF0FC06FE070E080E090E004C0660FF7
:101FA000771F881F991F4A95D2F760957095809585
:101FB0009095C695C695C370602B712B822B932B81
:101FC000C23049F058F4C13019F00E94BE1420CF3D
:101FD0000E94AC141DCF0E94D0141ACF0E94AA14E4
:101FE00017CF8695112311F08C2F8170882309F467
:101FF0000FCF4D2F429546954770440F440F0D2F3C
:102000000F7010E030E020E0042E04C0000F111F1C
:10201000221F331F0A94D2F760E070E0CB01D4FF97
:102020000FC06FE070E080E090E004C0660F771FA3
:10203000881F991F4A95D2F7609570958095909565
:10204000C695C695C370602B712B822B932BC23023
:1020500049F058F4C13019F00E948315D9CE0E947E
:102060007115D6CE0E949515D3CE0E94E614D0CE1F
:10207000CF70112329F08C2F0E940C158D2F12CFB9
:102080008D2F0E94A00E8C2F0E942D15C1CED23F05
:1020900089F160F4D03FC9F0D13F29F1112309F44F
:1020A00042C001119DCE8C2F8F7121C0D33F39F1D9
:1020B000D43FA1F7112369F1CF718C2F0E940C1529
:1020C00063E08C2F0E943817A3CE112341F0053016
:1020D00008F09ECE8C2F8F710E94501599CE06303D
:1020E00008F096CEF7CF8C2F8F71112369F20E94E2
:1020F0000C158ECE8C2F8F711123C9F3C5CF1123F0
:1021000029F08C2F8F710E94F71482CE0E94F21456
:102110007FCE81E00E945317023008F479CE82E02E
:102120000E94531775CE002359F0D93309F0E9CE38
:102130008FEF97EEE3E081509040E040E1F7DFCE93
:102140008C2F8F71A1CF4C2F4F706D2FC6010E9425
:1021500000040E9422145CCE4C2F4F706D2FC601DC
:102160000E94030455CEDF91CF911F910F91FF90F4
:10217000EF90DF90CF90BF9008950F931F93CF9370
:10218000DF93EC01688179818A810E9448168C0175
:102190000E94A7150E94A914B801CE01DF91CF912A
:1021A0001F910F910C94A70ECF93DF93EC018B81BD
:1021B0009C81892B29F08881998189238F3F59F44B
:1021C000DF91CF910895CE010E94BD10CE01DF9125
:1021D000CF910C947E03CE010E949F038111F3CF17
:1021E0000E948A16882361F38A81882349F382E05A
:1021F000DF91CF910C94531790E080E00E94420C45
:1022000090E080E00E94580C0E94D2160E94E216D4
:102210000E9402170E94FF090C94D8080E947A16A7
:102220000C94FC100E94C2160C940E11E92FE2953A
:10223000EF70E250EE3070F4F0E0E157F34E0C94A2
:10224000221C803F19F020F4883E20F481E008959C
:10225000843FE1F380E00895883EC0F3813FD1F7E9
:10226000F5CF93FB882780F908950E943E160C94C1
:102270001611CF93DF9300D000D00F92CDB7DEB709
:102280000F900F900F900F900F90DF91CF910895C6
:10229000CF93DF9300D000D000D0CDB7DEB7269625
:1022A0000FB6F894DEBF0FBECDBFDF91CF9108957A
:1022B0001F93CF93DF93C0911C0116E080911D0105
:1022C0008C1304C0DF91CF911F910895D0E01C9F23
:1022D000F0011D9FF00D1124E25EFE4F40815181FF
:1022E00062817381848195810E9448112196C77013
:1022F000E5CF40914E0150914F0160915001709196
:10230000510180915201909153010C9448111F93F7
:10231000CF93DF9380915301807FA9F48091500186
:10232000882389F080911C01C0911D0160914E01AC
:1023300070914F01A0915101B0915201D62FD72336
:1023400016E0C81304C0DF91CF911F91089590E06B
:10235000109711F0DF3F19F401968770F2CF189FA4
:102360009001199F300D1124F901E25EFE4F418169
:102370004713F2CF40814613EFCF42814111ECCF9A
:10238000438154814A1B5B0B483C510528F78091DF
:1023900053018F70806180935301F901ED5DFE4F11
:1023A00080818F70806180838EE491E00E94D410E0
:1023B000DF91CF911F910C945811AF92BF92CF92A1
:1023C000DF92EF92FF920F931F93CF93DF93CDB7DE
:1023D000DEB761970FB6F894DEBF0FBECDBF8C019C
:1023E00085E0F801DE011D9601900D928A95E1F7D6
:1023F000F80140815181E2808EE4C82E81E0D82E20
:1024000060915101709152016115710509F461C12A
:1024100090914E0120914F01892F82238F3F09F423
:1024200058C1A380B480F0905001F501E61BF70B72
:10243000FF2009F4FCC080915301382F307FE83C25
:10244000F10508F0B2C0311179C0FE2C251323C06C
:10245000941321C0E1101FC08F70806180935301DD
:102460000E947911C6010E94D41080915301F80195
:1024700085838F2D61960FB6F894DEBF0FBECDBF5A
:10248000DF91CF911F910F91FF90EF90DF90CF9050
:10249000BF90AF900895AB2829F0842F85238F3FFC
:1024A00009F033C180E0F82FF170DF2E80FF3CC0CF
:1024B00080911C0120911D0136E0821315C04D87CB
:1024C0005E878D859E850E943E16292F22952F704E
:1024D0002230F0F0243018F59F70F1F0F80195816A
:1024E000907FD1F4D12C1EC090E0389FF001399F2D
:1024F000F00D1124E25EFE4F6181651306C060811C
:10250000641303C062816E110FC001968770D5CF2E
:102510009F7011F0882331F3805E883018F3C80172
:102520000E94D410FD2CA5CFEE2009F4A2CF8091FB
:102530005301816080935301F12C9BCF251306C07A
:10254000941304C0F801EE2009F48DC04D875E8716
:102550008D859E850E943511882319F1EE2009F1A1
:1025600080915301803270F020914E0130914F01E3
:1025700038872F831986BB86AA868C87CE0107965B
:102580000E94D41086E0F801AEE4B1E001900D9213
:102590008A95E1F70E9487110E947911FF24F39434
:1025A00068CFC8010E94D410F9CF311113C07A2D21
:1025B000B98AA88A6E2D89890E9439118EE491E02A
:1025C0000E94D41086E0F60111928A95E9F70E94E4
:1025D0007911B2CF25130FC094130DC0E1100BC0B9
:1025E000F8018583C8010E94D41086E0F60111929B
:1025F0008A95E9F73ECF4D875E878D859E850E943F
:102600003511882371F2EE2061F2809153018032FE
:1026100008F4B8CF20914E0130914F013A832983BD
:102620001B82BD82AC828E83CE010196A9CFE83C8D
:10263000F10508F041C0FE2CEE2009F4B2CF2513BD
:102640002AC0941328C08091530180FD1BC0982F8D
:10265000907FC1F0F8018583903F31F0982F907FF3
:10266000905F8F70892B8583C8010E94D41086E00B
:10267000F801AEE4B1E001900D928A95E1F70E9475
:102680007911F7CE86E0F801AEE4B1E001900D9249
:102690008A95E1F7EECE4D875E878D859E850E94F7
:1026A000351181116FCF8091530181608093530167
:1026B000C8010E94D410DDCE7A2DB98AA88A6E2D69
:1026C00089890E94391186E0F60111928A95E9F70D
:1026D000D6CFEE2009F465CF4D875E878D859E8528
:1026E0000E943511F82E882309F45BCF86E0F801AB
:1026F000AEE4B1E001900D928A95E1F78EE491E0AD
:102700000E948D0D0E948711BACF81E08E25CBCE1D
:102710001F93CF93DF93CDB7DEB72C970FB6F89406
:10272000DEBF0FBECDBF4F83588769877A878B87FF
:102730009C87CE0107960E94DD11882369F08A8567
:102740009B85892B39F04F815885842F85238F3FB6
:1027500009F071C016E05FC086E0FE013796DE0129
:10276000119601900D928A95E1F78A859B85892BB8
:1027700089F38F81988589238F3F61F320911D0113
:1027800030E0C90101968770992740911C014817D4
:10279000190671F40E94121110921D0110921C0171
:1027A00086E0EEE4F1E0DF011D928A95E9F7D2CFF1
:1027B00096E0929FD001939FB00D1124A25EBE4F70
:1027C000FE01319601900D929A95E1F780931D01DB
:1027D0000E945811BFCF819FC0011124825E9E4F7D
:1027E0000E94DD118823E9F0E0911C011E9FF00199
:1027F0001124E25EFE4F40815181628173818481A8
:1028000095810E94481180911C0190E0019687708B
:10281000992780931C0180911C0190911D018913BF
:10282000DACF2C960FB6F894DEBF0FBECDBFDF9186
:10283000CF911F91089569857A858B859C850E942B
:10284000481188CFEF92FF920F931F93CF93DF939E
:102850008C01892B81F0F12CEE24E394E801219680
:10286000F8018491843770F4843008F05FC08130BF
:10287000B1F08230A1F1DF91CF911F910F91FF90C4
:10288000EF900895853709F44CC008F43DC09CE7EB
:10289000980F903780F78F770E94240E49C00E5F03
:1028A0001F4FFE01849190E2980F983060F487707A
:1028B000FE2D01C0FF0F8A95EAF78F2F0E94D516D3
:1028C0000E94021702C00E94920D8F2D815030F29B
:1028D000EFE9FFE03197F1F700C00000F7CF0E5F9E
:1028E0001F4FFE01849190E2980F983050F487704A
:1028F000FE2D01C0FF0F8A95EAF78F2F0E94DB168D
:10290000DFCF0E94240EE1CF0E5F1F4FFE01C49166
:10291000C150D8F28FE99FE00197F1F700C00000A5
:10292000F7CF0E5F1F4FFE01F490CFCF0E94920DA4
:102930008E01CBCF08950C949A140E949B1460933F
:102940008A0170938B0180938C0190938D010C947C
:10295000FC1008950C949D140F931F9300918A010D
:1029600010918B0120918C0130918D01602B712B86
:10297000822B932B1F910F910C949D140F931F93F7
:1029800000918A0110918B0120918C0130918D0171
:1029900060237123822393231F910F910C949D1424
:1029A0000F931F9300918A0110918B0120918C014C
:1029B00030918D0160277127822793271F910F91F6
:1029C0000C949D140C949A140C94E2140E94E41438
:1029D00060938601709387018093880190938901A9
:1029E0000C94FC1060E070E0CB010C94E6140F93A3
:1029F0001F9341E050E060E070E08A019B0104C059
:102A0000000F111F221F331F8A95D2F7C901B80189
:102A10001F910F910C94E6140F931F9341E050E027
:102A200060E070E004C0440F551F661F771F8A9551
:102A3000D2F78091860190918701A0918801B09191
:102A400089018A019B01082B192B2A2B3B2BC901D9
:102A5000B8011F910F910C94E6140F931F9341E05E
:102A600050E060E070E004C0440F551F661F771F00
:102A70008A95D2F7CB01BA016095709580959095B3
:102A80000091860110918701209188013091890180
:102A900060237123822393231F910F910C94E614DA
:102AA0000F931F9341E050E060E070E004C0440FDA
:102AB000551F661F771F8A95D2F7809186019091E6
:102AC0008701A0918801B09189018A019B010827A3
:102AD00019272A273B27C901B8011F910F910C9490
:102AE000E6140F931F9300918601109187012091A6
:102AF000880130918901602B712B822B932B1F91C0
:102B00000F910C94E6140F931F930091860110917E
:102B100087012091880130918901602371238223EC
:102B200093231F910F910C94E6140F931F93009120
:102B300086011091870120918801309189016027D9
:102B40007127822793271F910F910C94E614089503
:102B50002FE0929F800D1124982F977041E001C0C3
:102B6000440F9A95EAF786958695869595E0899F14
:102B7000F0011124EC5AFE4F90E080E070E051919A
:102B8000DF0111979B01082E02C0369527950A9404
:102B9000E2F7217021952527242325272C930196E0
:102BA0008530910561F708952FE0929F800D1124E3
:102BB000982F977086958695869525E0829FF001DF
:102BC0001124EC5AFE4F50E040E080E0219130E0CB
:102BD000092E02C0369527950A94E2F72170332713
:102BE000042E01C0220F0A94EAF7822B4F5F5F4F39
:102BF0004530510559F70895BF92CF92DF92EF9279
:102C0000FF920F931F93CF93DF938C01C0908601A7
:102C1000D0908701E0908801F090890180918A012D
:102C200090918B01A0918C01B0918D01C82AD92A75
:102C3000EA2AFB2ACFE1D0E0BC2ED701C6010C2E38
:102C400004C0B695A795979587950A94D2F780FD0D
:102C50000EC0219788F7B12C8B2DDF91CF911F915A
:102C60000F91FF90EF90DF90CF90BF900895B80143
:102C70008C2F0E942004019761F3EECFCF93DF9356
:102C8000EC010E94FC15BE01DF91CF910C94200451
:102C90001F93CF93DF93EB0190911B01992331F0A8
:102CA000CB01DF91CF911F910C943E16882379F0D0
:102CB000CB010E94FC15182F682FCE010E94A81589
:102CC000BE01812FDF91CF911F910C942004CB0185
:102CD0000E94D415182FF4CF682F8091680090912E
:102CE00069000C946B18682F8091680090916900BE
:102CF0000C946D1880916800909169000C946F1885
:102D000080918E01859585958595089580918E0198
:102D10008770089590918E01977081E009F480E0AA
:102D200008959091300292FB222720F9281751F044
:102D300080FB92F99093300280912F0290913002A3
:102D40000C94981708958091300282FB882780F9AF
:102D500091E089270C94911681E00C94911680E003
:102D60000C94911680919A01089590919A01892B63
:102D700080939A010895809590919A019823909359
:102D80009A01089510929A01089590919901892BC2
:102D9000809399010895809590919901982390933B
:102DA0009901089510929901089590919801892BA5
:102DB000809398010895809590919801982390931D
:102DC0009801089510929801089580918F010895B7
:102DD00008950C94E8169091300292FD08C09091ED
:102DE0008F01981721F080938F010C94E9160895B4
:102DF00080918F01882329F010928F0180E00C943C
:102E0000E9160895E0916800F091690080919A01B7
:102E10008083E0916800F091690080819091990130
:102E2000892B8083E0916800F09169008081909106
:102E30009801892B808390918F01992381F0E091F3
:102E40006800F09169008081892B808380916800FF
:102E5000909169000E94231881110E94F8168091B8
:102E60006800909169000C94290C08950C94351712
:102E70009091300292FD10C098E0899F900111243A
:102E8000622B60938E010E940C1580918E018595B6
:102E9000859585950C9436170C940C1510928E011F
:102EA00080E00C94361790918E0180958923809351
:102EB0008E01282F277039F4282F082E000C330B91
:102EC0009217130621F49091300292FF07C0859566
:102ED000859585950E942D150C944E17089580E0D8
:102EE00008956FEF7FEF90E080E00C94671C90E016
:102EF00080E00E94441C21E08A3E9E4F09F020E0C1
:102F0000822F089582E090E00C943C1C83E090E0D6
:102F10000C943C1CCF9384E090E00E943C1CC82F92
:102F200082E290E00E943C1C982F8C2FCF91089554
:102F3000CF93C92F682F84E090E00E944A1C6C2F29
:102F400082E290E0CF910C944A1CAB01BC018FE06F
:102F500090E00C945B1CAB01BC0183E190E00C940D
:102F60005B1C60E070E0CB010C94AB1760E070E09C
:102F7000CB010E94A5170C94B1176AEE7EEF90E08A
:102F800080E00E94671C60E082E090E00E944A1CA2
:102F900060E083E090E00E944A1C10928A01109247
:102FA0008B0110928C0110928D0160E084E090E022
:102FB0000E944A1C60E082E290E00E944A1C60E0AD
:102FC00085E090E00E944A1C60E086E090E00E946C
:102FD0004A1C6FEF87E090E00E944A1C40E050E0FE
:102FE000BA0188E090E00E945B1C60E08DE090E018
:102FF0000E944A1C40E050E0BA0188E190E00E9443
:103000005B1C60E087E190E00E944A1C40E050E0D9
:10301000BA018CE190E00E945B1C70E060E080E20D
:1030200090E00E94671C40E050E0BA0188E190E027
:103030000E945B1C0C94B6170C94BD17682F8EE091
:1030400090E00C944A1C9C012E5F3F4FAC01485FFE
:103050005F4F80E02417350709F40895F901919135
:103060009F019923B9F38F5FF5CF662349F0FC01E7
:10307000329608962191261729F0E817F907D1F71B
:1030800080E0089581E008959C01FC0132969FEF55
:1030900080E04191461751F09F3F19F4411101C062
:1030A000982F8F5F8630A9F79F3F09F40895290F65
:1030B000311D97FD3A95F90162830895FC0132961E
:1030C00008962191261303C0DF0111971C92E8177F
:1030D000F907B9F708950C9444180C945E180296F9
:1030E00026E0FC0111922A95E9F7089508950895C4
:1030F0000C94771880919C01882329F00E947818FD
:1031000080E00C94F80308950895CF930E947618F8
:103110000E94C8060E948418C0E08C2F0E945106AD
:10312000892B31F4CF5FC530C1F780E0CF9108958E
:1031300081E0FCCF08950C949A180E9412110E940D
:103140001D0C0E94F8030C949B188BE083BF8AEF40
:103150008CBF82E089BF08952FB7F8948091450213
:1031600090914602A0914702B09148022FBF089566
:103170002FB7F89460914502709146028091470202
:10318000909148022FBF08959C014FB7F894809109
:10319000450290914602A0914702B09148024FBF6C
:1031A000821B930B089578941F921FB61F921124CF
:1031B0008F939F93AF93BF93809145029091460266
:1031C000A0914702B09148020196A11DB11D8093C4
:1031D000450290934602A0934702B0934802BF91E4
:1031E000AF919F918F911F901FBE1F90189588E1FE
:1031F00098E00FB6F894A89581BD0FBE91BDA89533
:10320000F894D8E0CEE528E3299320E0299314BE72
:10321000FFCF08959093ED008093EC0008950E94F5
:10322000AC18EC010E948F0C0E94F31B8B9A80E07B
:10323000815009F047C08B9878940E94A30C0E949B
:103240001D1A0E94180CFFEF20E732E0F1502040D9
:103250003040E1F700C0000001E01CE08091700206
:103260008823C1F1109270020E94AC18EC01809189
:103270009C01882321F010929C010E949D1880914E
:103280009C018823A9F10E947A180E94851888233E
:1032900029F3F89491B3939A892F8C6081BB82B300
:1032A000812782BB8FE7E8E3F1E08150E040F04006
:1032B000E1F700C0000082B3812782BB91BB9398E5
:1032C0007894CCCFA895EFE9FFE03197F1F700C0F3
:1032D0000000AECF80919C018111D1CFCE010E9420
:1032E000C418069760F200939C010E947A18C7CF19
:1032F0000E94031B80917602882329F0809154025A
:1033000084FD0E94A90C0E94C4190E949F0CA6CFA4
:1033100080912E020895CF93DF9300D00F92CDB706
:10332000DEB790919F01981307C020919D013091C5
:103330009E012617370791F080939F0170939E019D
:1033400060939D0189837B836A8380918D0284FFD2
:1033500005C063E0CE0101960E94FF1A0F900F9006
:103360000F90DF91CF910895BC0184E00C948B19EC
:10337000BC0183E00C948B1920918D0224FF03C0C3
:1033800066E00C94FF1A0895CF93DF93CAE0D0E073
:103390008091540284FF1AC08091AB019091AC01DE
:1033A000981789F028E0829FC001112468E08355B6
:1033B0009E4F0E94FB1A8091AB0190E001968F70A6
:1033C00099278093AB01DF91CF9108950E94031B51
:1033D0008FE99FE00197F1F700C000002197C1F647
:1033E000F2CFCF93DF93EC01A091AC01B0E0CD011F
:1033F00001968F7099272091AB01281779F093E0FF
:10340000AA0FBB1F9A95E1F7A355BE4F98E0FE01A6
:1034100001900D929A95E1F78093AC010E94031BF5
:103420000E94C41988E0FE01A3EAB1E001900D9268
:103430008A95E1F7DF91CF9108958AE690E00895AB
:10344000FC01808180768032F1F48181813061F4E9
:1034500084819581892BB9F483EA91E0909372027B
:103460008093710288E00895823041F48DE292E009
:10347000909372028093710281E008958A3029F45A
:10348000838180932D0280E008958930E1F7828165
:1034900093818115924069F484819581892B49F447
:1034A00081E08093A201868197819093A10180930E
:1034B000A0018FEF0895FC018091A0019091A101DE
:1034C000892B61F08091A201813041F49081909329
:1034D0002E021092A1011092A00108958FEF08957D
:1034E0000895FC019381933051F130F49130B9F09B
:1034F0009230E9F080E008959132D9F19232D1F71B
:1035000084819581009709F445C0019799F781EF6F
:1035100091E090937202809371028BE708958BEB98
:1035200091E0909372028093710282E1089580E8A5
:1035300091E090937202809371028BE308958281EF
:10354000813079F0882329F08230A1F68DEC91E06A
:103550000AC08DEE91E0909372028093710284E034
:1035600008958DED91E090937202809371028EE048
:1035700008958281882331F0813009F0BBCF8BEA36
:1035800091E002C082E991E090937202809371020F
:1035900089E008958CE692E0909372028093710224
:1035A00080E408951F93CF93DF93E82F792F162F90
:1035B000EA01888184FF1CC0298188E828272983A3
:1035C000CE010296DC012E2F372F512F5E0FF9010D
:1035D00021912D939F01452F4E1B1416C4F3612F8B
:1035E0000E94B1011C5F1883DF91CF911F91089554
:1035F0008AE58883E5CF44E552E00C94D21A4DE881
:1036000052E00C94D21ACF93DF936091730263500F
:1036100067FD12C080916F02CCE0D0E0C81BD109D9
:10362000C958DD4F80916E02803108F054C0CE0140
:103630000E94701A109273028091750084FF3EC040
:10364000809174008F3FD1F1C82F893008F0C8E015
:10365000982F9C1B909374009091490228E8922720
:10366000909349028823E9F080917102909172024F
:1036700020916D0226FFAEC0FC012C2FAAE4B2E01F
:1036800034913D9331962150D9F79C012F5F3F4FE4
:103690008FEF8C0F820F932F911D90937202809366
:1036A00071026C2F8AE492E00E94B101CC5FCC30B1
:1036B00019F08FEF80937400C093750084E190B38C
:1036C0009C7031F48150D9F71092740210926C0200
:1036D000DF91CF9108958D3209F069C0683009F00B
:1036E000A9CF83EC809349028AE5809375001092FC
:1036F0006D028881807671F0CE010E94201A8F3F82
:10370000C1F4988197FD8E8190E890936D0280932B
:10371000740090CF2A81109252029981911111C0A8
:103720001092530222E532E082E03093720220933D
:1037300071029F819111EBCF9E81981740F7892FDD
:10374000E6CF953029F42093740222E532E0EDCFE4
:10375000963099F49B81913021F4CE010E94711A28
:1037600008C09230D1F39330C1F39132B1F3923269
:10377000A1F390E490936D02C2CF983089F0993014
:1037800019F420937602E1CF9A3071F09B30E9F67C
:103790009BE49093550290938E0290936102D5CF53
:1037A00026E732E081E0C1CF22E532E0FBCF809115
:1037B0006D0287FF3FCFCE010E945B1A8F3F21F43D
:1037C0008EE18093750036CF882309F433CF1092B1
:1037D000740030CFDC012C2FEAE4F2E03D9131930C
:1037E0002150E1F752CFCF93DF9385B7886085BF33
:1037F0008BB780688BBFC4E5D2E08BE48983ADE8EA
:10380000B2E011968C931197E0E6F2E081838AE5AD
:1038100088838C938083DF91CF91089597FB072E47
:1038200016F4009407D077FD09D00E94281C07FCED
:1038300005D03EF4909581959F4F089570956195C0
:103840007F4F0895EE0FFF1F0590F491E02D09942E
:10385000AA1BBB1B51E107C0AA1FBB1FA617B707B6
:1038600010F0A61BB70B881F991F5A95A9F78095D2
:103870009095BC01CD010895E199FECF9FBB8EBB11
:10388000E09A99278DB30895A8E1B0E042E050E0B6
:103890000C946F1C262FE199FECF9FBB8EBBE09A44
:1038A00001970DB2021631F02DBB0FB6F894E29AD3
:1038B000E19A0FBE08950396272F0E944B1C0E9489
:1038C0004A1C252F0E944B1C242F0C944B1C019644
:1038D000272F0E944B1C0C944A1CDC01CB01FC01DD
:1038E000E199FECF06C0FFBBEEBBE09A31960DB268
:1038F0000D9241505040B8F70895F894FFCFDB0E79
:10390000DB0E330F330F850FA10F080F080FAC0F1D
:10391000381047104710A310080F080FAC102111E2
:1039200021112A112A112C112A112A112A112111CF
:0A393000211131112A112A11311161
:10393A002808641E140A321E90018819F119BC194C
:10394A00B819B419FF5AE200E900EA00B500B60056
:10395A00B700CD008301CC008A01920194012102B3
:10396A00230224022502260227022A02B300B400F7
:10397A006F0070008182839192939495969737365F
:10398A003534323130076064636261E200E900EA8B
:10399A0000B500B600B700CD008301CC008A0192C1
:1039AA000194012102230224022502260227022A67
:0C39BA0002B300B4006F00700081828333
:00000001FF
